{
  "_format": "hh-sol-artifact-1",
  "contractName": "Library",
  "sourceName": "contracts/Library.sol",
  "abi": [
    {
      "inputs": [],
      "stateMutability": "nonpayable",
      "type": "constructor"
    },
    {
      "inputs": [
        {
          "internalType": "string",
          "name": "_isbn",
          "type": "string"
        },
        {
          "internalType": "string",
          "name": "_title",
          "type": "string"
        },
        {
          "internalType": "uint256",
          "name": "_year",
          "type": "uint256"
        },
        {
          "internalType": "string",
          "name": "_author",
          "type": "string"
        }
      ],
      "name": "addBook",
      "outputs": [],
      "stateMutability": "nonpayable",
      "type": "function"
    },
    {
      "inputs": [],
      "name": "admin",
      "outputs": [
        {
          "internalType": "address",
          "name": "",
          "type": "address"
        }
      ],
      "stateMutability": "view",
      "type": "function"
    },
    {
      "inputs": [
        {
          "internalType": "string",
          "name": "",
          "type": "string"
        }
      ],
      "name": "books",
      "outputs": [
        {
          "internalType": "string",
          "name": "isbn",
          "type": "string"
        },
        {
          "internalType": "string",
          "name": "title",
          "type": "string"
        },
        {
          "internalType": "uint256",
          "name": "year",
          "type": "uint256"
        },
        {
          "internalType": "string",
          "name": "author",
          "type": "string"
        }
      ],
      "stateMutability": "view",
      "type": "function"
    },
    {
      "inputs": [
        {
          "internalType": "string",
          "name": "_isbn",
          "type": "string"
        }
      ],
      "name": "getBook",
      "outputs": [
        {
          "internalType": "string",
          "name": "",
          "type": "string"
        },
        {
          "internalType": "string",
          "name": "",
          "type": "string"
        },
        {
          "internalType": "uint256",
          "name": "",
          "type": "uint256"
        },
        {
          "internalType": "string",
          "name": "",
          "type": "string"
        }
      ],
      "stateMutability": "view",
      "type": "function"
    },
    {
      "inputs": [
        {
          "internalType": "string",
          "name": "_isbn",
          "type": "string"
        }
      ],
      "name": "removeBook",
      "outputs": [],
      "stateMutability": "nonpayable",
      "type": "function"
    },
    {
      "inputs": [
        {
          "internalType": "string",
          "name": "_isbn",
          "type": "string"
        },
        {
          "internalType": "string",
          "name": "_title",
          "type": "string"
        },
        {
          "internalType": "uint256",
          "name": "_year",
          "type": "uint256"
        },
        {
          "internalType": "string",
          "name": "_author",
          "type": "string"
        }
      ],
      "name": "updateBook",
      "outputs": [],
      "stateMutability": "nonpayable",
      "type": "function"
    }
  ],
  "bytecode": "0x608060405234801561001057600080fd5b50336000806101000a81548173ffffffffffffffffffffffffffffffffffffffff021916908373ffffffffffffffffffffffffffffffffffffffff160217905550611138806100606000396000f3fe608060405234801561001057600080fd5b50600436106100625760003560e01c80632b9dfe8014610067578063598e14551461009a5780636e4a44c5146100b65780638cd35f49146100d2578063c37a8361146100ee578063f851a44014610121575b600080fd5b610081600480360381019061007c9190610bfe565b61013f565b6040516100919493929190610e8a565b60405180910390f35b6100b460048036038101906100af9190610c3f565b61031d565b005b6100d060048036038101906100cb9190610bfe565b6104ca565b005b6100ec60048036038101906100e79190610c3f565b610624565b005b61010860048036038101906101039190610bfe565b6107cb565b6040516101189493929190610e8a565b60405180910390f35b610129610a7a565b6040516101369190610e6f565b60405180910390f35b6001818051602081018201805184825260208301602085012081835280955050505050506000915090508060000180546101789061104a565b80601f01602080910402602001604051908101604052809291908181526020018280546101a49061104a565b80156101f15780601f106101c6576101008083540402835291602001916101f1565b820191906000526020600020905b8154815290600101906020018083116101d457829003601f168201915b5050505050908060010180546102069061104a565b80601f01602080910402602001604051908101604052809291908181526020018280546102329061104a565b801561027f5780601f106102545761010080835404028352916020019161027f565b820191906000526020600020905b81548152906001019060200180831161026257829003601f168201915b50505050509080600201549080600301805461029a9061104a565b80601f01602080910402602001604051908101604052809291908181526020018280546102c69061104a565b80156103135780601f106102e857610100808354040283529160200191610313565b820191906000526020600020905b8154815290600101906020018083116102f657829003601f168201915b5050505050905084565b60008054906101000a900473ffffffffffffffffffffffffffffffffffffffff1673ffffffffffffffffffffffffffffffffffffffff163373ffffffffffffffffffffffffffffffffffffffff16146103ab576040517f08c379a00000000000000000000000000000000000000000000000000000000081526004016103a290610f24565b60405180910390fd5b60006001856040516103bd9190610e58565b908152602001604051809103902060000180546103d99061104a565b90501461041b576040517f08c379a000000000000000000000000000000000000000000000000000000000815260040161041290610ee4565b60405180910390fd5b60006040518060800160405280868152602001858152602001848152602001838152509050806001866040516104519190610e58565b9081526020016040518091039020600082015181600001908051906020019061047b929190610a9e565b506020820151816001019080519060200190610498929190610a9e565b506040820151816002015560608201518160030190805190602001906104bf929190610a9e565b509050505050505050565b60008054906101000a900473ffffffffffffffffffffffffffffffffffffffff1673ffffffffffffffffffffffffffffffffffffffff163373ffffffffffffffffffffffffffffffffffffffff1614610558576040517f08c379a000000000000000000000000000000000000000000000000000000000815260040161054f90610f24565b60405180910390fd5b600060018260405161056a9190610e58565b908152602001604051809103902060000180546105869061104a565b9050116105c8576040517f08c379a00000000000000000000000000000000000000000000000000000000081526004016105bf90610f04565b60405180910390fd5b6001816040516105d89190610e58565b9081526020016040518091039020600080820160006105f79190610b24565b6001820160006106079190610b24565b600282016000905560038201600061061f9190610b24565b505050565b60008054906101000a900473ffffffffffffffffffffffffffffffffffffffff1673ffffffffffffffffffffffffffffffffffffffff163373ffffffffffffffffffffffffffffffffffffffff16146106b2576040517f08c379a00000000000000000000000000000000000000000000000000000000081526004016106a990610f24565b60405180910390fd5b60006001856040516106c49190610e58565b908152602001604051809103902060000180546106e09061104a565b905011610722576040517f08c379a000000000000000000000000000000000000000000000000000000000815260040161071990610f04565b60405180910390fd5b6040518060800160405280858152602001848152602001838152602001828152506001856040516107539190610e58565b9081526020016040518091039020600082015181600001908051906020019061077d929190610a9e565b50602082015181600101908051906020019061079a929190610a9e565b506040820151816002015560608201518160030190805190602001906107c1929190610a9e565b5090505050505050565b6060806000606060006001866040516107e49190610e58565b908152602001604051809103902060000180546108009061104a565b905011610842576040517f08c379a000000000000000000000000000000000000000000000000000000000815260040161083990610f04565b60405180910390fd5b6001856040516108529190610e58565b90815260200160405180910390206000016001866040516108739190610e58565b90815260200160405180910390206001016001876040516108949190610e58565b9081526020016040518091039020600201546001886040516108b69190610e58565b90815260200160405180910390206003018380546108d39061104a565b80601f01602080910402602001604051908101604052809291908181526020018280546108ff9061104a565b801561094c5780601f106109215761010080835404028352916020019161094c565b820191906000526020600020905b81548152906001019060200180831161092f57829003601f168201915b5050505050935082805461095f9061104a565b80601f016020809104026020016040519081016040528092919081815260200182805461098b9061104a565b80156109d85780601f106109ad576101008083540402835291602001916109d8565b820191906000526020600020905b8154815290600101906020018083116109bb57829003601f168201915b505050505092508080546109eb9061104a565b80601f0160208091040260200160405190810160405280929190818152602001828054610a179061104a565b8015610a645780601f10610a3957610100808354040283529160200191610a64565b820191906000526020600020905b815481529060010190602001808311610a4757829003601f168201915b5050505050905093509350935093509193509193565b60008054906101000a900473ffffffffffffffffffffffffffffffffffffffff1681565b828054610aaa9061104a565b90600052602060002090601f016020900481019282610acc5760008555610b13565b82601f10610ae557805160ff1916838001178555610b13565b82800160010185558215610b13579182015b82811115610b12578251825591602001919060010190610af7565b5b509050610b209190610b64565b5090565b508054610b309061104a565b6000825580601f10610b425750610b61565b601f016020900490600052602060002090810190610b609190610b64565b5b50565b5b80821115610b7d576000816000905550600101610b65565b5090565b6000610b94610b8f84610f75565b610f44565b905082815260208101848484011115610bac57600080fd5b610bb7848285611008565b509392505050565b600082601f830112610bd057600080fd5b8135610be0848260208601610b81565b91505092915050565b600081359050610bf8816110eb565b92915050565b600060208284031215610c1057600080fd5b600082013567ffffffffffffffff811115610c2a57600080fd5b610c3684828501610bbf565b91505092915050565b60008060008060808587031215610c5557600080fd5b600085013567ffffffffffffffff811115610c6f57600080fd5b610c7b87828801610bbf565b945050602085013567ffffffffffffffff811115610c9857600080fd5b610ca487828801610bbf565b9350506040610cb587828801610be9565b925050606085013567ffffffffffffffff811115610cd257600080fd5b610cde87828801610bbf565b91505092959194509250565b610cf381610fcc565b82525050565b6000610d0482610fa5565b610d0e8185610fb0565b9350610d1e818560208601611017565b610d27816110da565b840191505092915050565b6000610d3d82610fa5565b610d478185610fc1565b9350610d57818560208601611017565b80840191505092915050565b6000610d70601d83610fb0565b91507f426f6f6b2077697468204953424e20616c7265616479206578697374730000006000830152602082019050919050565b6000610db0601d83610fb0565b91507f426f6f6b2077697468204953424e20646f6573206e6f742065786973740000006000830152602082019050919050565b6000610df0602283610fb0565b91507f4f6e6c792061646d696e2063616e20706572666f726d2074686973206163746960008301527f6f6e0000000000000000000000000000000000000000000000000000000000006020830152604082019050919050565b610e5281610ffe565b82525050565b6000610e648284610d32565b915081905092915050565b6000602082019050610e846000830184610cea565b92915050565b60006080820190508181036000830152610ea48187610cf9565b90508181036020830152610eb88186610cf9565b9050610ec76040830185610e49565b8181036060830152610ed98184610cf9565b905095945050505050565b60006020820190508181036000830152610efd81610d63565b9050919050565b60006020820190508181036000830152610f1d81610da3565b9050919050565b60006020820190508181036000830152610f3d81610de3565b9050919050565b6000604051905081810181811067ffffffffffffffff82111715610f6b57610f6a6110ab565b5b8060405250919050565b600067ffffffffffffffff821115610f9057610f8f6110ab565b5b601f19601f8301169050602081019050919050565b600081519050919050565b600082825260208201905092915050565b600081905092915050565b6000610fd782610fde565b9050919050565b600073ffffffffffffffffffffffffffffffffffffffff82169050919050565b6000819050919050565b82818337600083830152505050565b60005b8381101561103557808201518184015260208101905061101a565b83811115611044576000848401525b50505050565b6000600282049050600182168061106257607f821691505b602082108114156110765761107561107c565b5b50919050565b7f4e487b7100000000000000000000000000000000000000000000000000000000600052602260045260246000fd5b7f4e487b7100000000000000000000000000000000000000000000000000000000600052604160045260246000fd5b6000601f19601f8301169050919050565b6110f481610ffe565b81146110ff57600080fd5b5056fea26469706673582212208dd11fd4029c71b110db377446cd5c63b77728381d5f374095e1ed830b0952e464736f6c63430008000033",
  "linkReferences": {},
  "deployedLinkReferences": {}
}